:100000000C9434000C943E000C943E000C943E0082
:100010000C9440000C943E000C943E000C943E0066
:100020000C943E000C943E000C943E000C943E0058
:100030000C943E000C943E000C943E000C943E0048
:100040000C943E000C943E000C943E000C943E0038
:100050000C943E000C943E000C943E000C943E0028
:100060000C943E000C943E0011241FBECFEFD8E04C
:10007000DEBFCDBF0E944F000C945F000C940000C7
:100080001F920F920FB60F921124359B02C0289831
:1000900001C0289A0F900FBE0F901F901895209ABC
:1000A0003D9880E288B980916C00806280936C00FA
:1000B000809168008260809368007894FFCFF89404
:0200C000FFCF70
:00000001FF
